{
  "_format": "hh-sol-artifact-1",
  "contractName": "MyNFT",
  "sourceName": "contracts/myNft.sol",
  "abi": [
    {
      "inputs": [],
      "stateMutability": "nonpayable",
      "type": "constructor"
    },
    {
      "inputs": [
        {
          "internalType": "address",
          "name": "sender",
          "type": "address"
        },
        {
          "internalType": "uint256",
          "name": "tokenId",
          "type": "uint256"
        },
        {
          "internalType": "address",
          "name": "owner",
          "type": "address"
        }
      ],
      "name": "ERC721IncorrectOwner",
      "type": "error"
    },
    {
      "inputs": [
        {
          "internalType": "address",
          "name": "operator",
          "type": "address"
        },
        {
          "internalType": "uint256",
          "name": "tokenId",
          "type": "uint256"
        }
      ],
      "name": "ERC721InsufficientApproval",
      "type": "error"
    },
    {
      "inputs": [
        {
          "internalType": "address",
          "name": "approver",
          "type": "address"
        }
      ],
      "name": "ERC721InvalidApprover",
      "type": "error"
    },
    {
      "inputs": [
        {
          "internalType": "address",
          "name": "operator",
          "type": "address"
        }
      ],
      "name": "ERC721InvalidOperator",
      "type": "error"
    },
    {
      "inputs": [
        {
          "internalType": "address",
          "name": "owner",
          "type": "address"
        }
      ],
      "name": "ERC721InvalidOwner",
      "type": "error"
    },
    {
      "inputs": [
        {
          "internalType": "address",
          "name": "receiver",
          "type": "address"
        }
      ],
      "name": "ERC721InvalidReceiver",
      "type": "error"
    },
    {
      "inputs": [
        {
          "internalType": "address",
          "name": "sender",
          "type": "address"
        }
      ],
      "name": "ERC721InvalidSender",
      "type": "error"
    },
    {
      "inputs": [
        {
          "internalType": "uint256",
          "name": "tokenId",
          "type": "uint256"
        }
      ],
      "name": "ERC721NonexistentToken",
      "type": "error"
    },
    {
      "inputs": [
        {
          "internalType": "address",
          "name": "owner",
          "type": "address"
        }
      ],
      "name": "OwnableInvalidOwner",
      "type": "error"
    },
    {
      "inputs": [
        {
          "internalType": "address",
          "name": "account",
          "type": "address"
        }
      ],
      "name": "OwnableUnauthorizedAccount",
      "type": "error"
    },
    {
      "anonymous": false,
      "inputs": [
        {
          "indexed": true,
          "internalType": "address",
          "name": "owner",
          "type": "address"
        },
        {
          "indexed": true,
          "internalType": "address",
          "name": "approved",
          "type": "address"
        },
        {
          "indexed": true,
          "internalType": "uint256",
          "name": "tokenId",
          "type": "uint256"
        }
      ],
      "name": "Approval",
      "type": "event"
    },
    {
      "anonymous": false,
      "inputs": [
        {
          "indexed": true,
          "internalType": "address",
          "name": "owner",
          "type": "address"
        },
        {
          "indexed": true,
          "internalType": "address",
          "name": "operator",
          "type": "address"
        },
        {
          "indexed": false,
          "internalType": "bool",
          "name": "approved",
          "type": "bool"
        }
      ],
      "name": "ApprovalForAll",
      "type": "event"
    },
    {
      "anonymous": false,
      "inputs": [
        {
          "indexed": false,
          "internalType": "uint256",
          "name": "_fromTokenId",
          "type": "uint256"
        },
        {
          "indexed": false,
          "internalType": "uint256",
          "name": "_toTokenId",
          "type": "uint256"
        }
      ],
      "name": "BatchMetadataUpdate",
      "type": "event"
    },
    {
      "anonymous": false,
      "inputs": [
        {
          "indexed": false,
          "internalType": "uint256",
          "name": "_tokenId",
          "type": "uint256"
        }
      ],
      "name": "MetadataUpdate",
      "type": "event"
    },
    {
      "anonymous": false,
      "inputs": [
        {
          "indexed": true,
          "internalType": "address",
          "name": "previousOwner",
          "type": "address"
        },
        {
          "indexed": true,
          "internalType": "address",
          "name": "newOwner",
          "type": "address"
        }
      ],
      "name": "OwnershipTransferred",
      "type": "event"
    },
    {
      "anonymous": false,
      "inputs": [
        {
          "indexed": true,
          "internalType": "address",
          "name": "from",
          "type": "address"
        },
        {
          "indexed": true,
          "internalType": "address",
          "name": "to",
          "type": "address"
        },
        {
          "indexed": true,
          "internalType": "uint256",
          "name": "tokenId",
          "type": "uint256"
        }
      ],
      "name": "Transfer",
      "type": "event"
    },
    {
      "inputs": [
        {
          "internalType": "address",
          "name": "to",
          "type": "address"
        },
        {
          "internalType": "uint256",
          "name": "tokenId",
          "type": "uint256"
        }
      ],
      "name": "approve",
      "outputs": [],
      "stateMutability": "nonpayable",
      "type": "function"
    },
    {
      "inputs": [
        {
          "internalType": "address",
          "name": "owner",
          "type": "address"
        }
      ],
      "name": "balanceOf",
      "outputs": [
        {
          "internalType": "uint256",
          "name": "",
          "type": "uint256"
        }
      ],
      "stateMutability": "view",
      "type": "function"
    },
    {
      "inputs": [
        {
          "internalType": "uint256",
          "name": "tokenId",
          "type": "uint256"
        }
      ],
      "name": "burn",
      "outputs": [],
      "stateMutability": "nonpayable",
      "type": "function"
    },
    {
      "inputs": [
        {
          "internalType": "uint256",
          "name": "tokenId",
          "type": "uint256"
        }
      ],
      "name": "getApproved",
      "outputs": [
        {
          "internalType": "address",
          "name": "",
          "type": "address"
        }
      ],
      "stateMutability": "view",
      "type": "function"
    },
    {
      "inputs": [
        {
          "internalType": "address",
          "name": "owner",
          "type": "address"
        },
        {
          "internalType": "address",
          "name": "operator",
          "type": "address"
        }
      ],
      "name": "isApprovedForAll",
      "outputs": [
        {
          "internalType": "bool",
          "name": "",
          "type": "bool"
        }
      ],
      "stateMutability": "view",
      "type": "function"
    },
    {
      "inputs": [],
      "name": "name",
      "outputs": [
        {
          "internalType": "string",
          "name": "",
          "type": "string"
        }
      ],
      "stateMutability": "view",
      "type": "function"
    },
    {
      "inputs": [],
      "name": "owner",
      "outputs": [
        {
          "internalType": "address",
          "name": "",
          "type": "address"
        }
      ],
      "stateMutability": "view",
      "type": "function"
    },
    {
      "inputs": [
        {
          "internalType": "uint256",
          "name": "tokenId",
          "type": "uint256"
        }
      ],
      "name": "ownerOf",
      "outputs": [
        {
          "internalType": "address",
          "name": "",
          "type": "address"
        }
      ],
      "stateMutability": "view",
      "type": "function"
    },
    {
      "inputs": [],
      "name": "renounceOwnership",
      "outputs": [],
      "stateMutability": "nonpayable",
      "type": "function"
    },
    {
      "inputs": [
        {
          "internalType": "address",
          "name": "to",
          "type": "address"
        },
        {
          "internalType": "uint256",
          "name": "tokenId",
          "type": "uint256"
        },
        {
          "internalType": "string",
          "name": "uri",
          "type": "string"
        }
      ],
      "name": "safeMint",
      "outputs": [],
      "stateMutability": "nonpayable",
      "type": "function"
    },
    {
      "inputs": [
        {
          "internalType": "address",
          "name": "from",
          "type": "address"
        },
        {
          "internalType": "address",
          "name": "to",
          "type": "address"
        },
        {
          "internalType": "uint256",
          "name": "tokenId",
          "type": "uint256"
        }
      ],
      "name": "safeTransferFrom",
      "outputs": [],
      "stateMutability": "nonpayable",
      "type": "function"
    },
    {
      "inputs": [
        {
          "internalType": "address",
          "name": "from",
          "type": "address"
        },
        {
          "internalType": "address",
          "name": "to",
          "type": "address"
        },
        {
          "internalType": "uint256",
          "name": "tokenId",
          "type": "uint256"
        },
        {
          "internalType": "bytes",
          "name": "data",
          "type": "bytes"
        }
      ],
      "name": "safeTransferFrom",
      "outputs": [],
      "stateMutability": "nonpayable",
      "type": "function"
    },
    {
      "inputs": [
        {
          "internalType": "address",
          "name": "operator",
          "type": "address"
        },
        {
          "internalType": "bool",
          "name": "approved",
          "type": "bool"
        }
      ],
      "name": "setApprovalForAll",
      "outputs": [],
      "stateMutability": "nonpayable",
      "type": "function"
    },
    {
      "inputs": [
        {
          "internalType": "bytes4",
          "name": "interfaceId",
          "type": "bytes4"
        }
      ],
      "name": "supportsInterface",
      "outputs": [
        {
          "internalType": "bool",
          "name": "",
          "type": "bool"
        }
      ],
      "stateMutability": "view",
      "type": "function"
    },
    {
      "inputs": [],
      "name": "symbol",
      "outputs": [
        {
          "internalType": "string",
          "name": "",
          "type": "string"
        }
      ],
      "stateMutability": "view",
      "type": "function"
    },
    {
      "inputs": [
        {
          "internalType": "uint256",
          "name": "tokenId",
          "type": "uint256"
        }
      ],
      "name": "tokenURI",
      "outputs": [
        {
          "internalType": "string",
          "name": "",
          "type": "string"
        }
      ],
      "stateMutability": "view",
      "type": "function"
    },
    {
      "inputs": [
        {
          "internalType": "address",
          "name": "from",
          "type": "address"
        },
        {
          "internalType": "address",
          "name": "to",
          "type": "address"
        },
        {
          "internalType": "uint256",
          "name": "tokenId",
          "type": "uint256"
        }
      ],
      "name": "transferFrom",
      "outputs": [],
      "stateMutability": "nonpayable",
      "type": "function"
    },
    {
      "inputs": [
        {
          "internalType": "address",
          "name": "newOwner",
          "type": "address"
        }
      ],
      "name": "transferOwnership",
      "outputs": [],
      "stateMutability": "nonpayable",
      "type": "function"
    }
  ],
  "bytecode": "0x60806040523480156200001157600080fd5b50336040518060400160405280600781526020017f4d79546f6b656e000000000000000000000000000000000000000000000000008152506040518060400160405280600381526020017f4d544b0000000000000000000000000000000000000000000000000000000000815250816000908162000090919062000472565b508060019081620000a2919062000472565b505050600073ffffffffffffffffffffffffffffffffffffffff168173ffffffffffffffffffffffffffffffffffffffff16036200011a5760006040517f1e4fbdf70000000000000000000000000000000000000000000000000000000081526004016200011191906200059e565b60405180910390fd5b6200012b816200013260201b60201c565b50620005bb565b6000600760009054906101000a900473ffffffffffffffffffffffffffffffffffffffff16905081600760006101000a81548173ffffffffffffffffffffffffffffffffffffffff021916908373ffffffffffffffffffffffffffffffffffffffff1602179055508173ffffffffffffffffffffffffffffffffffffffff168173ffffffffffffffffffffffffffffffffffffffff167f8be0079c531659141344cd1fd0a4f28419497f9722a3daafe3b4186f6b6457e060405160405180910390a35050565b600081519050919050565b7f4e487b7100000000000000000000000000000000000000000000000000000000600052604160045260246000fd5b7f4e487b7100000000000000000000000000000000000000000000000000000000600052602260045260246000fd5b600060028204905060018216806200027a57607f821691505b60208210810362000290576200028f62000232565b5b50919050565b60008190508160005260206000209050919050565b60006020601f8301049050919050565b600082821b905092915050565b600060088302620002fa7fffffffffffffffffffffffffffffffffffffffffffffffffffffffffffffffff82620002bb565b620003068683620002bb565b95508019841693508086168417925050509392505050565b6000819050919050565b6000819050919050565b6000620003536200034d62000347846200031e565b62000328565b6200031e565b9050919050565b6000819050919050565b6200036f8362000332565b620003876200037e826200035a565b848454620002c8565b825550505050565b600090565b6200039e6200038f565b620003ab81848462000364565b505050565b5b81811015620003d357620003c760008262000394565b600181019050620003b1565b5050565b601f8211156200042257620003ec8162000296565b620003f784620002ab565b8101602085101562000407578190505b6200041f6200041685620002ab565b830182620003b0565b50505b505050565b600082821c905092915050565b6000620004476000198460080262000427565b1980831691505092915050565b600062000462838362000434565b9150826002028217905092915050565b6200047d82620001f8565b67ffffffffffffffff81111562000499576200049862000203565b5b620004a5825462000261565b620004b2828285620003d7565b600060209050601f831160018114620004ea5760008415620004d5578287015190505b620004e1858262000454565b86555062000551565b601f198416620004fa8662000296565b60005b828110156200052457848901518255600182019150602085019450602081019050620004fd565b8683101562000544578489015162000540601f89168262000434565b8355505b6001600288020188555050505b505050505050565b600073ffffffffffffffffffffffffffffffffffffffff82169050919050565b6000620005868262000559565b9050919050565b620005988162000579565b82525050565b6000602082019050620005b560008301846200058d565b92915050565b61260380620005cb6000396000f3fe608060405234801561001057600080fd5b50600436106101165760003560e01c8063715018a6116100a2578063b88d4fde11610071578063b88d4fde146102cb578063c87b56dd146102e7578063cd279c7c14610317578063e985e9c514610333578063f2fde38b1461036357610116565b8063715018a6146102695780638da5cb5b1461027357806395d89b4114610291578063a22cb465146102af57610116565b806323b872dd116100e957806323b872dd146101b557806342842e0e146101d157806342966c68146101ed5780636352211e1461020957806370a082311461023957610116565b806301ffc9a71461011b57806306fdde031461014b578063081812fc14610169578063095ea7b314610199575b600080fd5b61013560048036038101906101309190611abf565b61037f565b6040516101429190611b07565b60405180910390f35b610153610391565b6040516101609190611bb2565b60405180910390f35b610183600480360381019061017e9190611c0a565b610423565b6040516101909190611c78565b60405180910390f35b6101b360048036038101906101ae9190611cbf565b61043f565b005b6101cf60048036038101906101ca9190611cff565b610455565b005b6101eb60048036038101906101e69190611cff565b610557565b005b61020760048036038101906102029190611c0a565b610577565b005b610223600480360381019061021e9190611c0a565b61058e565b6040516102309190611c78565b60405180910390f35b610253600480360381019061024e9190611d52565b6105a0565b6040516102609190611d8e565b60405180910390f35b61027161065a565b005b61027b61066e565b6040516102889190611c78565b60405180910390f35b610299610698565b6040516102a69190611bb2565b60405180910390f35b6102c960048036038101906102c49190611dd5565b61072a565b005b6102e560048036038101906102e09190611f4a565b610740565b005b61030160048036038101906102fc9190611c0a565b61075d565b60405161030e9190611bb2565b60405180910390f35b610331600480360381019061032c919061206e565b61076f565b005b61034d600480360381019061034891906120dd565b610790565b60405161035a9190611b07565b60405180910390f35b61037d60048036038101906103789190611d52565b610824565b005b600061038a826108aa565b9050919050565b6060600080546103a09061214c565b80601f01602080910402602001604051908101604052809291908181526020018280546103cc9061214c565b80156104195780601f106103ee57610100808354040283529160200191610419565b820191906000526020600020905b8154815290600101906020018083116103fc57829003601f168201915b5050505050905090565b600061042e8261090b565b5061043882610993565b9050919050565b610451828261044c6109d0565b6109d8565b5050565b600073ffffffffffffffffffffffffffffffffffffffff168273ffffffffffffffffffffffffffffffffffffffff16036104c75760006040517f64a0ae920000000000000000000000000000000000000000000000000000000081526004016104be9190611c78565b60405180910390fd5b60006104db83836104d66109d0565b6109ea565b90508373ffffffffffffffffffffffffffffffffffffffff168173ffffffffffffffffffffffffffffffffffffffff1614610551578382826040517f64283d7b0000000000000000000000000000000000000000000000000000000081526004016105489392919061217d565b60405180910390fd5b50505050565b61057283838360405180602001604052806000815250610740565b505050565b61058a6000826105856109d0565b6109ea565b5050565b60006105998261090b565b9050919050565b60008073ffffffffffffffffffffffffffffffffffffffff168273ffffffffffffffffffffffffffffffffffffffff16036106135760006040517f89c62b6400000000000000000000000000000000000000000000000000000000815260040161060a9190611c78565b60405180910390fd5b600360008373ffffffffffffffffffffffffffffffffffffffff1673ffffffffffffffffffffffffffffffffffffffff168152602001908152602001600020549050919050565b610662610c04565b61066c6000610c8b565b565b6000600760009054906101000a900473ffffffffffffffffffffffffffffffffffffffff16905090565b6060600180546106a79061214c565b80601f01602080910402602001604051908101604052809291908181526020018280546106d39061214c565b80156107205780601f106106f557610100808354040283529160200191610720565b820191906000526020600020905b81548152906001019060200180831161070357829003601f168201915b5050505050905090565b61073c6107356109d0565b8383610d51565b5050565b61074b848484610455565b61075784848484610ec0565b50505050565b606061076882611077565b9050919050565b610777610c04565b610781838361118a565b61078b8282611283565b505050565b6000600560008473ffffffffffffffffffffffffffffffffffffffff1673ffffffffffffffffffffffffffffffffffffffff16815260200190815260200160002060008373ffffffffffffffffffffffffffffffffffffffff1673ffffffffffffffffffffffffffffffffffffffff16815260200190815260200160002060009054906101000a900460ff16905092915050565b61082c610c04565b600073ffffffffffffffffffffffffffffffffffffffff168173ffffffffffffffffffffffffffffffffffffffff160361089e5760006040517f1e4fbdf70000000000000000000000000000000000000000000000000000000081526004016108959190611c78565b60405180910390fd5b6108a781610c8b565b50565b6000634906490660e01b7bffffffffffffffffffffffffffffffffffffffffffffffffffffffff1916827bffffffffffffffffffffffffffffffffffffffffffffffffffffffff191614806109045750610903826112df565b5b9050919050565b600080610917836113c1565b9050600073ffffffffffffffffffffffffffffffffffffffff168173ffffffffffffffffffffffffffffffffffffffff160361098a57826040517f7e2732890000000000000000000000000000000000000000000000000000000081526004016109819190611d8e565b60405180910390fd5b80915050919050565b60006004600083815260200190815260200160002060009054906101000a900473ffffffffffffffffffffffffffffffffffffffff169050919050565b600033905090565b6109e583838360016113fe565b505050565b6000806109f6846113c1565b9050600073ffffffffffffffffffffffffffffffffffffffff168373ffffffffffffffffffffffffffffffffffffffff1614610a3857610a378184866115c3565b5b600073ffffffffffffffffffffffffffffffffffffffff168173ffffffffffffffffffffffffffffffffffffffff1614610ac957610a7a6000856000806113fe565b6001600360008373ffffffffffffffffffffffffffffffffffffffff1673ffffffffffffffffffffffffffffffffffffffff168152602001908152602001600020600082825403925050819055505b600073ffffffffffffffffffffffffffffffffffffffff168573ffffffffffffffffffffffffffffffffffffffff1614610b4c576001600360008773ffffffffffffffffffffffffffffffffffffffff1673ffffffffffffffffffffffffffffffffffffffff168152602001908152602001600020600082825401925050819055505b846002600086815260200190815260200160002060006101000a81548173ffffffffffffffffffffffffffffffffffffffff021916908373ffffffffffffffffffffffffffffffffffffffff160217905550838573ffffffffffffffffffffffffffffffffffffffff168273ffffffffffffffffffffffffffffffffffffffff167fddf252ad1be2c89b69c2b068fc378daa952ba7f163c4a11628f55a4df523b3ef60405160405180910390a4809150509392505050565b610c0c6109d0565b73ffffffffffffffffffffffffffffffffffffffff16610c2a61066e565b73ffffffffffffffffffffffffffffffffffffffff1614610c8957610c4d6109d0565b6040517f118cdaa7000000000000000000000000000000000000000000000000000000008152600401610c809190611c78565b60405180910390fd5b565b6000600760009054906101000a900473ffffffffffffffffffffffffffffffffffffffff16905081600760006101000a81548173ffffffffffffffffffffffffffffffffffffffff021916908373ffffffffffffffffffffffffffffffffffffffff1602179055508173ffffffffffffffffffffffffffffffffffffffff168173ffffffffffffffffffffffffffffffffffffffff167f8be0079c531659141344cd1fd0a4f28419497f9722a3daafe3b4186f6b6457e060405160405180910390a35050565b600073ffffffffffffffffffffffffffffffffffffffff168273ffffffffffffffffffffffffffffffffffffffff1603610dc257816040517f5b08ba18000000000000000000000000000000000000000000000000000000008152600401610db99190611c78565b60405180910390fd5b80600560008573ffffffffffffffffffffffffffffffffffffffff1673ffffffffffffffffffffffffffffffffffffffff16815260200190815260200160002060008473ffffffffffffffffffffffffffffffffffffffff1673ffffffffffffffffffffffffffffffffffffffff16815260200190815260200160002060006101000a81548160ff0219169083151502179055508173ffffffffffffffffffffffffffffffffffffffff168373ffffffffffffffffffffffffffffffffffffffff167f17307eab39ab6107e8899845ad3d59bd9653f200f220920489ca2b5937696c3183604051610eb39190611b07565b60405180910390a3505050565b60008373ffffffffffffffffffffffffffffffffffffffff163b1115611071578273ffffffffffffffffffffffffffffffffffffffff1663150b7a02610f046109d0565b8685856040518563ffffffff1660e01b8152600401610f269493929190612209565b6020604051808303816000875af1925050508015610f6257506040513d601f19601f82011682018060405250810190610f5f919061226a565b60015b610fe6573d8060008114610f92576040519150601f19603f3d011682016040523d82523d6000602084013e610f97565b606091505b506000815103610fde57836040517f64a0ae92000000000000000000000000000000000000000000000000000000008152600401610fd59190611c78565b60405180910390fd5b805181602001fd5b63150b7a0260e01b7bffffffffffffffffffffffffffffffffffffffffffffffffffffffff1916817bffffffffffffffffffffffffffffffffffffffffffffffffffffffff19161461106f57836040517f64a0ae920000000000000000000000000000000000000000000000000000000081526004016110669190611c78565b60405180910390fd5b505b50505050565b60606110828261090b565b5060006006600084815260200190815260200160002080546110a39061214c565b80601f01602080910402602001604051908101604052809291908181526020018280546110cf9061214c565b801561111c5780601f106110f15761010080835404028352916020019161111c565b820191906000526020600020905b8154815290600101906020018083116110ff57829003601f168201915b50505050509050600061112d611687565b90506000815103611142578192505050611185565b60008251111561117757808260405160200161115f9291906122d3565b60405160208183030381529060405292505050611185565b6111808461169e565b925050505b919050565b600073ffffffffffffffffffffffffffffffffffffffff168273ffffffffffffffffffffffffffffffffffffffff16036111fc5760006040517f64a0ae920000000000000000000000000000000000000000000000000000000081526004016111f39190611c78565b60405180910390fd5b600061120a838360006109ea565b9050600073ffffffffffffffffffffffffffffffffffffffff168173ffffffffffffffffffffffffffffffffffffffff161461127e5760006040517f73c6ac6e0000000000000000000000000000000000000000000000000000000081526004016112759190611c78565b60405180910390fd5b505050565b806006600084815260200190815260200160002090816112a391906124a3565b507ff8e1a15aba9398e019f0b49df1a4fde98ee17ae345cb5f6b5e2c27f5033e8ce7826040516112d39190611d8e565b60405180910390a15050565b60007f80ac58cd000000000000000000000000000000000000000000000000000000007bffffffffffffffffffffffffffffffffffffffffffffffffffffffff1916827bffffffffffffffffffffffffffffffffffffffffffffffffffffffff191614806113aa57507f5b5e139f000000000000000000000000000000000000000000000000000000007bffffffffffffffffffffffffffffffffffffffffffffffffffffffff1916827bffffffffffffffffffffffffffffffffffffffffffffffffffffffff1916145b806113ba57506113b982611707565b5b9050919050565b60006002600083815260200190815260200160002060009054906101000a900473ffffffffffffffffffffffffffffffffffffffff169050919050565b80806114375750600073ffffffffffffffffffffffffffffffffffffffff168273ffffffffffffffffffffffffffffffffffffffff1614155b1561156b5760006114478461090b565b9050600073ffffffffffffffffffffffffffffffffffffffff168373ffffffffffffffffffffffffffffffffffffffff16141580156114b257508273ffffffffffffffffffffffffffffffffffffffff168173ffffffffffffffffffffffffffffffffffffffff1614155b80156114c557506114c38184610790565b155b1561150757826040517fa9fbf51f0000000000000000000000000000000000000000000000000000000081526004016114fe9190611c78565b60405180910390fd5b811561156957838573ffffffffffffffffffffffffffffffffffffffff168273ffffffffffffffffffffffffffffffffffffffff167f8c5be1e5ebec7d5bd14f71427d1e84f3dd0314c0f7b2291e5b200ac8c7c3b92560405160405180910390a45b505b836004600085815260200190815260200160002060006101000a81548173ffffffffffffffffffffffffffffffffffffffff021916908373ffffffffffffffffffffffffffffffffffffffff16021790555050505050565b6115ce838383611771565b61168257600073ffffffffffffffffffffffffffffffffffffffff168373ffffffffffffffffffffffffffffffffffffffff160361164357806040517f7e27328900000000000000000000000000000000000000000000000000000000815260040161163a9190611d8e565b60405180910390fd5b81816040517f177e802f000000000000000000000000000000000000000000000000000000008152600401611679929190612575565b60405180910390fd5b505050565b606060405180602001604052806000815250905090565b60606116a98261090b565b5060006116b4611687565b905060008151116116d457604051806020016040528060008152506116ff565b806116de84611832565b6040516020016116ef9291906122d3565b6040516020818303038152906040525b915050919050565b60007f01ffc9a7000000000000000000000000000000000000000000000000000000007bffffffffffffffffffffffffffffffffffffffffffffffffffffffff1916827bffffffffffffffffffffffffffffffffffffffffffffffffffffffff1916149050919050565b60008073ffffffffffffffffffffffffffffffffffffffff168373ffffffffffffffffffffffffffffffffffffffff161415801561182957508273ffffffffffffffffffffffffffffffffffffffff168473ffffffffffffffffffffffffffffffffffffffff1614806117ea57506117e98484610790565b5b8061182857508273ffffffffffffffffffffffffffffffffffffffff1661181083610993565b73ffffffffffffffffffffffffffffffffffffffff16145b5b90509392505050565b60606000600161184184611900565b01905060008167ffffffffffffffff8111156118605761185f611e1f565b5b6040519080825280601f01601f1916602001820160405280156118925781602001600182028036833780820191505090505b509050600082602001820190505b6001156118f5578080600190039150507f3031323334353637383961626364656600000000000000000000000000000000600a86061a8153600a85816118e9576118e861259e565b5b049450600085036118a0575b819350505050919050565b600080600090507a184f03e93ff9f4daa797ed6e38ed64bf6a1f010000000000000000831061195e577a184f03e93ff9f4daa797ed6e38ed64bf6a1f01000000000000000083816119545761195361259e565b5b0492506040810190505b6d04ee2d6d415b85acef8100000000831061199b576d04ee2d6d415b85acef810000000083816119915761199061259e565b5b0492506020810190505b662386f26fc1000083106119ca57662386f26fc1000083816119c0576119bf61259e565b5b0492506010810190505b6305f5e10083106119f3576305f5e10083816119e9576119e861259e565b5b0492506008810190505b6127108310611a18576127108381611a0e57611a0d61259e565b5b0492506004810190505b60648310611a3b5760648381611a3157611a3061259e565b5b0492506002810190505b600a8310611a4a576001810190505b80915050919050565b6000604051905090565b600080fd5b600080fd5b60007fffffffff0000000000000000000000000000000000000000000000000000000082169050919050565b611a9c81611a67565b8114611aa757600080fd5b50565b600081359050611ab981611a93565b92915050565b600060208284031215611ad557611ad4611a5d565b5b6000611ae384828501611aaa565b91505092915050565b60008115159050919050565b611b0181611aec565b82525050565b6000602082019050611b1c6000830184611af8565b92915050565b600081519050919050565b600082825260208201905092915050565b60005b83811015611b5c578082015181840152602081019050611b41565b60008484015250505050565b6000601f19601f8301169050919050565b6000611b8482611b22565b611b8e8185611b2d565b9350611b9e818560208601611b3e565b611ba781611b68565b840191505092915050565b60006020820190508181036000830152611bcc8184611b79565b905092915050565b6000819050919050565b611be781611bd4565b8114611bf257600080fd5b50565b600081359050611c0481611bde565b92915050565b600060208284031215611c2057611c1f611a5d565b5b6000611c2e84828501611bf5565b91505092915050565b600073ffffffffffffffffffffffffffffffffffffffff82169050919050565b6000611c6282611c37565b9050919050565b611c7281611c57565b82525050565b6000602082019050611c8d6000830184611c69565b92915050565b611c9c81611c57565b8114611ca757600080fd5b50565b600081359050611cb981611c93565b92915050565b60008060408385031215611cd657611cd5611a5d565b5b6000611ce485828601611caa565b9250506020611cf585828601611bf5565b9150509250929050565b600080600060608486031215611d1857611d17611a5d565b5b6000611d2686828701611caa565b9350506020611d3786828701611caa565b9250506040611d4886828701611bf5565b9150509250925092565b600060208284031215611d6857611d67611a5d565b5b6000611d7684828501611caa565b91505092915050565b611d8881611bd4565b82525050565b6000602082019050611da36000830184611d7f565b92915050565b611db281611aec565b8114611dbd57600080fd5b50565b600081359050611dcf81611da9565b92915050565b60008060408385031215611dec57611deb611a5d565b5b6000611dfa85828601611caa565b9250506020611e0b85828601611dc0565b9150509250929050565b600080fd5b600080fd5b7f4e487b7100000000000000000000000000000000000000000000000000000000600052604160045260246000fd5b611e5782611b68565b810181811067ffffffffffffffff82111715611e7657611e75611e1f565b5b80604052505050565b6000611e89611a53565b9050611e958282611e4e565b919050565b600067ffffffffffffffff821115611eb557611eb4611e1f565b5b611ebe82611b68565b9050602081019050919050565b82818337600083830152505050565b6000611eed611ee884611e9a565b611e7f565b905082815260208101848484011115611f0957611f08611e1a565b5b611f14848285611ecb565b509392505050565b600082601f830112611f3157611f30611e15565b5b8135611f41848260208601611eda565b91505092915050565b60008060008060808587031215611f6457611f63611a5d565b5b6000611f7287828801611caa565b9450506020611f8387828801611caa565b9350506040611f9487828801611bf5565b925050606085013567ffffffffffffffff811115611fb557611fb4611a62565b5b611fc187828801611f1c565b91505092959194509250565b600067ffffffffffffffff821115611fe857611fe7611e1f565b5b611ff182611b68565b9050602081019050919050565b600061201161200c84611fcd565b611e7f565b90508281526020810184848401111561202d5761202c611e1a565b5b612038848285611ecb565b509392505050565b600082601f83011261205557612054611e15565b5b8135612065848260208601611ffe565b91505092915050565b60008060006060848603121561208757612086611a5d565b5b600061209586828701611caa565b93505060206120a686828701611bf5565b925050604084013567ffffffffffffffff8111156120c7576120c6611a62565b5b6120d386828701612040565b9150509250925092565b600080604083850312156120f4576120f3611a5d565b5b600061210285828601611caa565b925050602061211385828601611caa565b9150509250929050565b7f4e487b7100000000000000000000000000000000000000000000000000000000600052602260045260246000fd5b6000600282049050600182168061216457607f821691505b6020821081036121775761217661211d565b5b50919050565b60006060820190506121926000830186611c69565b61219f6020830185611d7f565b6121ac6040830184611c69565b949350505050565b600081519050919050565b600082825260208201905092915050565b60006121db826121b4565b6121e581856121bf565b93506121f5818560208601611b3e565b6121fe81611b68565b840191505092915050565b600060808201905061221e6000830187611c69565b61222b6020830186611c69565b6122386040830185611d7f565b818103606083015261224a81846121d0565b905095945050505050565b60008151905061226481611a93565b92915050565b6000602082840312156122805761227f611a5d565b5b600061228e84828501612255565b91505092915050565b600081905092915050565b60006122ad82611b22565b6122b78185612297565b93506122c7818560208601611b3e565b80840191505092915050565b60006122df82856122a2565b91506122eb82846122a2565b91508190509392505050565b60008190508160005260206000209050919050565b60006020601f8301049050919050565b600082821b905092915050565b6000600883026123597fffffffffffffffffffffffffffffffffffffffffffffffffffffffffffffffff8261231c565b612363868361231c565b95508019841693508086168417925050509392505050565b6000819050919050565b60006123a061239b61239684611bd4565b61237b565b611bd4565b9050919050565b6000819050919050565b6123ba83612385565b6123ce6123c6826123a7565b848454612329565b825550505050565b600090565b6123e36123d6565b6123ee8184846123b1565b505050565b5b81811015612412576124076000826123db565b6001810190506123f4565b5050565b601f82111561245757612428816122f7565b6124318461230c565b81016020851015612440578190505b61245461244c8561230c565b8301826123f3565b50505b505050565b600082821c905092915050565b600061247a6000198460080261245c565b1980831691505092915050565b60006124938383612469565b9150826002028217905092915050565b6124ac82611b22565b67ffffffffffffffff8111156124c5576124c4611e1f565b5b6124cf825461214c565b6124da828285612416565b600060209050601f83116001811461250d57600084156124fb578287015190505b6125058582612487565b86555061256d565b601f19841661251b866122f7565b60005b828110156125435784890151825560018201915060208501945060208101905061251e565b86831015612560578489015161255c601f891682612469565b8355505b6001600288020188555050505b505050505050565b600060408201905061258a6000830185611c69565b6125976020830184611d7f565b9392505050565b7f4e487b7100000000000000000000000000000000000000000000000000000000600052601260045260246000fdfea2646970667358221220092a1da47aaa725a98160e81176b4fa9d508c337130fd24184ecc43ba83a7d8764736f6c63430008180033",
  "linkReferences": {},
  "deployedLinkReferences": {}
}